{
  "contractName": "EnsisTestContract",
  "abi": [
    {
      "anonymous": false,
      "inputs": [
        {
          "indexed": false,
          "internalType": "uint256",
          "name": "id",
          "type": "uint256"
        },
        {
          "indexed": false,
          "internalType": "string",
          "name": "name",
          "type": "string"
        }
      ],
      "name": "UserCreated",
      "type": "event"
    },
    {
      "anonymous": false,
      "inputs": [
        {
          "indexed": false,
          "internalType": "uint256",
          "name": "id",
          "type": "uint256"
        }
      ],
      "name": "UserDeleted",
      "type": "event"
    },
    {
      "anonymous": false,
      "inputs": [
        {
          "indexed": false,
          "internalType": "uint256",
          "name": "id",
          "type": "uint256"
        },
        {
          "indexed": false,
          "internalType": "string",
          "name": "name",
          "type": "string"
        }
      ],
      "name": "UserUpdated",
      "type": "event"
    },
    {
      "inputs": [
        {
          "internalType": "string",
          "name": "name",
          "type": "string"
        }
      ],
      "name": "createUser",
      "outputs": [],
      "stateMutability": "nonpayable",
      "type": "function"
    },
    {
      "inputs": [
        {
          "internalType": "uint256",
          "name": "id",
          "type": "uint256"
        }
      ],
      "name": "readUser",
      "outputs": [
        {
          "internalType": "uint256",
          "name": "",
          "type": "uint256"
        },
        {
          "internalType": "string",
          "name": "",
          "type": "string"
        }
      ],
      "stateMutability": "view",
      "type": "function"
    },
    {
      "inputs": [
        {
          "internalType": "uint256",
          "name": "id",
          "type": "uint256"
        },
        {
          "internalType": "string",
          "name": "name",
          "type": "string"
        }
      ],
      "name": "updateUser",
      "outputs": [],
      "stateMutability": "nonpayable",
      "type": "function"
    },
    {
      "inputs": [
        {
          "internalType": "uint256",
          "name": "id",
          "type": "uint256"
        }
      ],
      "name": "deleteUser",
      "outputs": [],
      "stateMutability": "nonpayable",
      "type": "function"
    },
    {
      "inputs": [],
      "name": "getTotalUsers",
      "outputs": [
        {
          "internalType": "uint256",
          "name": "",
          "type": "uint256"
        }
      ],
      "stateMutability": "view",
      "type": "function"
    }
  ],
  "bytecode": "0x608060405234801561001057600080fd5b506109c3806100206000396000f3fe608060405234801561001057600080fd5b50600436106100575760003560e01c80630d70e5d01461005c57806338f148451461008d578063507ffba5146100a95780639be572f6146100c5578063d85340e7146100e3575b600080fd5b61007660048036038101906100719190610550565b6100ff565b604051610084929190610625565b60405180910390f35b6100a760048036038101906100a29190610550565b610218565b005b6100c360048036038101906100be919061078a565b6102c3565b005b6100cd61036e565b6040516100da91906107d3565b60405180910390f35b6100fd60048036038101906100f891906107ee565b610378565b005b600060606001548310610147576040517f08c379a000000000000000000000000000000000000000000000000000000000815260040161013e90610896565b60405180910390fd5b600080600085815260200190815260200160002060405180604001604052908160008201548152602001600182018054610180906108e5565b80601f01602080910402602001604051908101604052809291908181526020018280546101ac906108e5565b80156101f95780601f106101ce576101008083540402835291602001916101f9565b820191906000526020600020905b8154815290600101906020018083116101dc57829003601f168201915b5050505050815250509050806000015181602001519250925050915091565b600154811061025c576040517f08c379a000000000000000000000000000000000000000000000000000000000815260040161025390610896565b60405180910390fd5b6000808281526020019081526020016000206000808201600090556001820160006102879190610423565b50507f42a77abd0397855f875460bb511f41935bfa5f396b556d95717d8c2e08334aae816040516102b891906107d3565b60405180910390a150565b60405180604001604052806001548152602001828152506000806001548152602001908152602001600020600082015181600001556020820151816001019080519060200190610314929190610463565b509050507fee305ea110dac8054a0415771cedeb3372a69ef1c3916abb2f5e1b3658d77c0e6001548260405161034b929190610625565b60405180910390a16001600081548092919061036690610945565b919050555050565b6000600154905090565b60015482106103bc576040517f08c379a00000000000000000000000000000000000000000000000000000000081526004016103b390610896565b60405180910390fd5b8060008084815260200190815260200160002060010190805190602001906103e5929190610463565b507f5898c2fc7726f88f217cd77fc8d44127690540692e1c694c0c958efcecbe5d748282604051610417929190610625565b60405180910390a15050565b50805461042f906108e5565b6000825580601f106104415750610460565b601f01602090049060005260206000209081019061045f91906104e9565b5b50565b82805461046f906108e5565b90600052602060002090601f01602090048101928261049157600085556104d8565b82601f106104aa57805160ff19168380011785556104d8565b828001600101855582156104d8579182015b828111156104d75782518255916020019190600101906104bc565b5b5090506104e591906104e9565b5090565b5b808211156105025760008160009055506001016104ea565b5090565b6000604051905090565b600080fd5b600080fd5b6000819050919050565b61052d8161051a565b811461053857600080fd5b50565b60008135905061054a81610524565b92915050565b60006020828403121561056657610565610510565b5b60006105748482850161053b565b91505092915050565b6105868161051a565b82525050565b600081519050919050565b600082825260208201905092915050565b60005b838110156105c65780820151818401526020810190506105ab565b838111156105d5576000848401525b50505050565b6000601f19601f8301169050919050565b60006105f78261058c565b6106018185610597565b93506106118185602086016105a8565b61061a816105db565b840191505092915050565b600060408201905061063a600083018561057d565b818103602083015261064c81846105ec565b90509392505050565b600080fd5b600080fd5b7f4e487b7100000000000000000000000000000000000000000000000000000000600052604160045260246000fd5b610697826105db565b810181811067ffffffffffffffff821117156106b6576106b561065f565b5b80604052505050565b60006106c9610506565b90506106d5828261068e565b919050565b600067ffffffffffffffff8211156106f5576106f461065f565b5b6106fe826105db565b9050602081019050919050565b82818337600083830152505050565b600061072d610728846106da565b6106bf565b9050828152602081018484840111156107495761074861065a565b5b61075484828561070b565b509392505050565b600082601f83011261077157610770610655565b5b813561078184826020860161071a565b91505092915050565b6000602082840312156107a05761079f610510565b5b600082013567ffffffffffffffff8111156107be576107bd610515565b5b6107ca8482850161075c565b91505092915050565b60006020820190506107e8600083018461057d565b92915050565b6000806040838503121561080557610804610510565b5b60006108138582860161053b565b925050602083013567ffffffffffffffff81111561083457610833610515565b5b6108408582860161075c565b9150509250929050565b7f7573657220646f6573206e6f7420657869737400000000000000000000000000600082015250565b6000610880601383610597565b915061088b8261084a565b602082019050919050565b600060208201905081810360008301526108af81610873565b9050919050565b7f4e487b7100000000000000000000000000000000000000000000000000000000600052602260045260246000fd5b600060028204905060018216806108fd57607f821691505b6020821081036109105761090f6108b6565b5b50919050565b7f4e487b7100000000000000000000000000000000000000000000000000000000600052601160045260246000fd5b60006109508261051a565b91507fffffffffffffffffffffffffffffffffffffffffffffffffffffffffffffffff820361098257610981610916565b5b60018201905091905056fea264697066735822122080b209e582ca363654387242dc812dbd76278bf3a338fa6fc0defae75f3590bb64736f6c634300080d0033",
  "immutableReferences": {},
  "source": "// SPDX-License-Identifier: MIT\n// Tells the Solidity compiler to compile only from v0.8.13 to v0.9.0\npragma solidity ^0.8.13;\n\n// import \"./ConvertLib.sol\";\n\n// This is just a simple example of a coin-like contract.\n// It is not ERC20 compatible and cannot be expected to talk to other\n// coin/token contracts.\n\ncontract EnsisTestContract {\n\tstruct User {\n\t\tuint id;\n\t\tstring name;\n\t}\n \n\tmapping (uint => User) private users;\n\tuint private nextId;\n\n\tevent UserCreated(uint id, string name);\n\tevent UserUpdated(uint id, string name);\n\tevent UserDeleted(uint id);\n\t\n\t// function to create a new user\n\tfunction createUser(string memory name) public {\n\t\tusers[nextId] = User(nextId, name);\n\t\temit UserCreated(nextId, name);\n\t\tnextId++;\n\t}\n\n\t// reading a user by their id\n\tfunction readUser(uint id) public view returns (uint, string memory) {\n\t\trequire(id < nextId, \"user does not exist\");\n\t\tUser memory user = users[id];\n\t\treturn(user.id, user.name);\n\t}\n\n\t// let us now update users details\n\tfunction updateUser(uint id, string memory name) public {\n\t\trequire(id < nextId, \"user does not exist\");\n\t\tusers[id].name = name;\n\t\temit UserUpdated(id, name);\n\t}\n\n\t// now let's create a function to delete user\n\tfunction deleteUser(uint id) public {\n\t\trequire(id < nextId, \"user does not exist\");\n\t\tdelete users[id];\n\t\temit UserDeleted(id);\n\t}\n\n\t// getting the total number of users created\n\tfunction getTotalUsers() public view returns (uint) {\n\t\treturn nextId;\n\t}\n}",
  "sourcePath": "/Users/mac/Documents/ensis/ensis_test_contract/contracts/EnsisTest.sol",
  "compiler": {
    "name": "solc",
    "version": "0.8.13+commit.abaa5c0e.Emscripten.clang"
  },
  "schemaVersion": "3.4.16",
  "updatedAt": "2024-09-11T07:01:39.043Z",
  "devdoc": {
    "kind": "dev",
    "methods": {},
    "version": 1
  },
  "userdoc": {
    "kind": "user",
    "methods": {},
    "version": 1
  }
}